:100000000C9430000C94F7030C94F7030C94F70352
:100010000C94F7030C94F7030C94F7030C94F70378
:100020000C94F7030C94F7030C94F7030C94F70368
:100030000C94F7030C94F7030C94F7030C94F70358
:100040000C94F7030C94F7030C94F7030C94F70348
:100050000C94F703006000A00007FC00A000A28041
:1000600011241FBECFE5D8E0DEBFCDBFE4E5F0E050
:1000700040E017C0B591A59135912591059107FDF7
:100080000CC095918591EF01F92FE82F05900D9205
:10009000A217B307D9F7FE0104C01D92A217B30738
:1000A000E1F7E036F40731F70E949E020C94E30377
:0400B000F894FFCFF2
:1000B4001F93CF93DF930E94370340E067E081E40E
:1000C4000E94010141E067E082E40E940101C0E076
:1000D4001C2F1F70DC2FD295DF704C2F417061E014
:1000E40082E40E940101C1FB442740F963E082E4F9
:1000F4000E940101C2FB442740F964E082E40E94AB
:100104000101C3FB442740F966E082E40E94010137
:100114004D2F417060E082E40E940101D1FB44272D
:1001240040F962E082E40E940101D2FB442740F9D5
:1001340065E082E40E9401014D2F4695469546955F
:1001440060E081E40E9401018FE99FE00197F1F7EB
:1001540000C000001D1315C064E081E40E9479030F
:10016400D82F81113CC065E081E40E94790381307D
:1001740009F040C066E081E40E947903882359F1C4
:1001840039C0D117A0F464E081E40E94790381307E
:1001940041F565E081E40E947903D82F811123C0E1
:1001A40066E081E40E9479038823A9F023C064E017
:1001B40081E40E947903D82F811117C065E081E49E
:1001C4000E947903182F811115C066E081E40E9412
:1001D4007903813061F4CF3F61F0CF5F79CFD0E014
:1001E40009C0D0E007C0D0E005C0D0E003C0D12FE3
:0E01F40001C0D2E08D2FDF91CF911F910895B1
:10020200823489F118F4813441F00895833409F479
:1002120050C0843409F472C008958AB390E0062E67
:1002220002C0969587950A94E2F780FF8BC0411130
:100232000CC02BB381E090E002C0880F991F6A9531
:10024200E2F7809582238BBB0895413009F07AC092
:100252002BB381E090E002C0880F991F6A95E2F704
:10026200822B8BBB089587B390E0062E02C0969531
:1002720087950A94E2F780FF65C041110CC028B34C
:1002820081E090E002C0880F991F6A95E2F780959D
:10029200822388BB0895413009F054C028B381E01D
:1002A20090E002C0880F991F6A95E2F7822B88BB03
:1002B200089584B390E0062E02C0969587950A941D
:1002C200E2F780FF3FC041110CC025B381E090E00E
:1002D20002C0880F991F6A95E2F78095822385BB39
:1002E2000895413079F525B381E090E002C0880F8E
:1002F200991F6A95E2F7822B85BB089584B390E03B
:10030200062E02C0969587950A94E2F780FF1AC0DE
:1003120041110CC022B381E090E002C0880F991F06
:100322006A95E2F78095822382BB0895413051F4A9
:1003320022B381E090E002C0880F991F6A95E2F72C
:06034200822B82BB08952E
:10034800EF92FF920F931F93CF93DF930E94F002D7
:1003580040E066E081E40E94010141E067E082E458
:100368000E94010110E0FF24F394E12C11FBCC273B
:10037800C0F9D12FD1704C2F60E081E40E940101B7
:100388004C2F64E081E40E9401014C2F61E082E47B
:100398000E9401014C2F65E082E40E9401014D2F6B
:1003A80061E081E40E9401014D2F65E081E40E9433
:1003B80001014D2F62E082E40E9401014D2F66E0A9
:1003C80082E40E940101C11105C0CF2DDD2331F067
:1003D800CE2D04C0CF2DD11101C0CE2D8FE99FE0C5
:1003E8000197F1F700C0000062E081E40E94790300
:1003F800C81318C063E081E40E947903C81314C0CD
:1004080063E082E40E947903C81310C064E082E4C8
:100418000E947903C8130CC01F5F143009F0A6CFDF
:1004280081E007C080E005C080E003C080E001C033
:1004380080E0DF91CF911F910F91FF90EF90089589
:10044800823431F118F4813439F008958334E1F1BC
:10045800843409F454C0089541110CC02AB381E0D2
:1004680090E002C0880F991F6A95E2F78095822371
:100478008ABB0895413009F05CC02AB381E090E05E
:1004880002C0880F991F6A95E2F7822B8ABB0895EC
:1004980041110CC027B381E090E002C0880F991F7A
:1004A8006A95E2F78095822387BB0895413009F069
:1004B80040C027B381E090E002C0880F991F6A9579
:1004C800E2F7822B87BB089541110CC024B381E069
:1004D80090E002C0880F991F6A95E2F78095822301
:1004E80084BB0895413029F524B381E090E002C02F
:1004F800880F991F6A95E2F7822B84BB08954111F2
:100508000CC021B381E090E002C0880F991F6A9562
:10051800E2F78095822381BB0895413051F421B3DD
:1005280081E090E002C0880F991F6A95E2F7822B5C
:0405380081BB0895E6
:10053C00CF93DF9300D0CDB7DEB70E94EE038FEFE1
:10054C0083BB15BA02E011E02FEF84E39CE021504D
:10055C0080409040E1F700C000000E94A401898314
:10056C0089818130B1F48091A0009091A1008058D4
:10057C00904069F0BE016E5F7F4F80E890E00E9472
:10058C00AA0380E890E09093A1008093A00015BB93
:10059C00DBCF18BA1BBA0E945A008983898182303A
:1005AC00B1F48091A0009091A1008056904069F028
:1005BC00BE016E5F7F4F80E690E00E94AA0380E64A
:1005CC0090E09093A1008093A00005BBBDCF18BA1A
:0405DC001BBABACFBD
:1005E00041E060E081E40E94240241E061E081E4B6
:1005F0000E94240240E062E081E40E94240240E084
:1006000063E081E40E94240241E064E081E40E940E
:10061000240241E065E081E40E94240241E066E0BA
:1006200081E40E94240241E061E082E40E9424020D
:1006300041E062E082E40E94240240E063E082E460
:100640000E94240240E064E082E40E94240241E02F
:1006500065E082E40E94240241E066E082E40E94B8
:0E066000240241E067E082E40E942402089533
:10066E0041E060E081E40E94240240E064E081E425
:10067E000E94240240E065E081E40E94240240E0F2
:10068E0066E081E40E94240241E067E081E40E947A
:10069E00240241E060E082E40E94240241E061E035
:1006AE0082E40E94240241E062E082E40E9424027D
:1006BE0041E063E082E40E94240241E064E082E4CF
:1006CE000E94240241E065E082E40E94240241E09F
:1006DE0066E082E40E94240241E067E082E40E9428
:0406EE002402089545
:1006F200823491F018F4813431F029C08334A9F0A6
:100702008434E1F024C089B390E002C096958795C5
:100712006A95E2F78170089586B390E002C09695DB
:1007220087956A95E2F78170089583B390E002C0DD
:10073200969587956A95E2F78170089580B390E067
:1007420002C0969587956A95E2F7817008958FEFBA
:02075200089508
:100754000F931F93CF93DF93EC01892B99F06115CD
:100764007105B1F08881882399F08B012196B80135
:100774000E94CF03F801808181110AC089918111FF
:10078400F6CF06C06115710519F081E0FB01808385
:0A079400DF91CF911F910F9108959E
:10079E006115710581F02FEF3FEF5D9903C0215078
:1007AE003109D9F75D9904C081E0FB01808308957A
:0807BE00FB0110828CB90895C3
:1007C600EC010E94FC030E94FB03CE010E94FD0384
:0607D600CE010E94F903B0
:1007DC00599A539A80B5866880BD10BC80E189B95E
:0207EC0008956E
:0407EE000C94000067
:0407F2000E94580009
:0207F600089564
:0207F800089562
:0207FA00089560
:1007FC004943203437383520697320646973636F3B
:10080C00766572656420616E64206F6B0D0A000062
:10081C004943203430373720697320646973636F20
:10082C00766572656420616E64206F6B0D0A000042
:00000001FF
