S01700004763634170706C69636174696F6E312E737265635B
S11300000C942A000C9434000C9434000C943400A6
S11300100C9434000C9434000C9434000C9434008C
S11300200C9434000C9434000C9434000C9434007C
S11300300C9434000C9434000C9434000C9434006C
S11300400C9434000C9434000C9434000C9434005C
S11300500C94340011241FBECFE5D8E0DEBFCDBF21
S11300600E94CD010C946D020C94000040E00E94AB
S11300703D0008950E9448010895823431F118F436
S1130080813439F008958334E1F1843409F454C09F
S1130090089541110CC02AB381E090E002C0880F9A
S11300A0991F6A95E2F7809582238ABB08954130AF
S11300B009F05CC02AB381E090E002C0880F991F68
S11300C06A95E2F7822B8ABB089541110CC027B3CD
S11300D081E090E002C0880F991F6A95E2F780954D
S11300E0822387BB0895413009F040C027B381E0E3
S11300F090E002C0880F991F6A95E2F7822B87BBB4
S1130100089541110CC024B381E090E002C0880F2F
S1130110991F6A95E2F78095822384BB0895413044
S113012029F524B381E090E002C0880F991F6A95F5
S1130130E2F7822B84BB089541110CC021B381E006
S113014090E002C0880F991F6A95E2F78095822398
S113015081BB0895413051F421B381E090E002C0A5
S1130160880F991F6A95E2F7822B81BB0895823428
S113017069F118F4813441F00895833409F448C0D6
S1130180843409F465C008958AB321E030E0062E72
S113019002C0220F331F0A94E2F790E082239323D4
S11301A002C0959587956A95E2F7892B09F46FC08B
S11301B0411105C08BB3209528232BBB08954130F2
S11301C009F065C08BB3282B2BBB089587B321E0BE
S11301D030E0062E02C0220F331F0A94E2F790E0AB
S11301E08223932302C0959587956A95E2F7892B1C
S11301F009F44DC0411105C088B32095282328BBBC
S11302000895413009F043C088B3282B28BB0895D2
S113021084B321E030E0062E02C0220F331F0A947B
S1130220E2F790E08223932302C0959587956A951F
S1130230E2F7892B61F1411105C085B3209528238C
S113024025BB0895413019F585B3282B25BB0895A6
S113025084B321E030E0062E02C0220F331F0A943B
S1130260E2F790E08223932302C0959587956A95DF
S1130270E2F7892B61F0411105C082B32095282350
S113028022BB0895413019F482B3282B22BB089570
S11302908234E9F018F4813431F055C0833459F1D3
S11302A08434E9F150C049B381E090E09C01062E0A
S11302B002C0220F331F0A94E2F7842F90E08223B6
S11302C0932302C0959587956A95E2F7089546B3FE
S11302D081E090E09C01062E02C0220F331F0A9495
S11302E0E2F7842F90E08223932302C095958795AB
S11302F06A95E2F7089543B381E090E09C01062EED
S113030002C0220F331F0A94E2F7842F90E0822365
S1130310932302C0959587956A95E2F7089540B3B3
S113032081E090E09C01062E02C0220F331F0A9444
S1130330E2F7842F90E08223932302C0959587955A
S11303406A95E2F708958FEF089560E081E40E94D2
S1130350360061E081E40E94360062E081E40E949C
S1130360360060E082E40E94BE0161E082E40E9403
S1130370BE0162E082E40E94BE01089541E00E9451
S11303803D00089541E00E94B700089540E00E94B6
S1130390B70008950E94480108950E94A50160E0F5
S11303A081E40E943A00813069F460E082E40E94B2
S11303B0C2012FE38DE093E0215080409040E1F7AB
S11303C000C0000061E081E40E943A00813069F4D9
S11303D061E082E40E94C2012FE38DE093E02150AA
S11303E080409040E1F700C0000062E081E40E9498
S11303F03A00813069F462E082E40E94C2012FE392
S11304008DE093E0215080409040E1F700C000006F
S113041060E082E40E94CA01C82F61E082E40E9485
S1130420CA01C80F62E082E40E94CA01C80F60E0FA
S113043082E40E94CA0181110DC061E082E40E943D
S1130440CA01811107C062E082E40E94CA018823C4
S113045009F4A5CFC13051F42FE181EA97E021508E
S113046080409040E1F700C0000017C0C23051F452
S11304702FED83E994E0215080409040E1F700C0E3
S113048000000BC0C33049F42FE986E891E0215005
S113049080409040E1F700C0000060E082E40E94E8
S11304A0CA01813021F460E082E40E94C60161E067
S11304B082E40E94CA01813021F461E082E40E9456
S11304C0C60162E082E40E94CA01813009F067CF6C
S11104D062E082E40E94C60162CFF894FFCF7E
S9030000FC
