:100000000C942A000C9447000C9447000C94470071
:100010000C9447000C9447000C9447000C94470044
:100020000C9447000C9447000C9447000C94470034
:100030000C9447000C9447000C9447000C94470024
:100040000C9447000C9447000C9447000C94470014
:100050000C94470011241FBECFE5D8E0DEBFCDBF12
:1000600010E0A0E6B0E0E0E0F7E002C005900D92FD
:10007000A236B107D9F720E0A2E6B0E001C01D9298
:10008000AC36B207E1F70E9466020C947E030C9432
:10009000000060E081E40E94E80061E081E40E94E9
:1000A000E80062E081E40E94E80061E082E40E94EE
:1000B000570260E082E40E94570262E082E40E94FC
:1000C00057028FEF81BB84BB12BA15BA62E082E49B
:1000D0000E945B02089540E050E001C0AB01BA010C
:1000E0006F5F7F4F982F91702FEF3FEF02C03695D3
:1000F00027959A95E2F74217530780F30895E199FF
:10010000FECF9FBB8EBB6DBB0FB607FE05C08FB782
:100110008F778FBF91E001C090E08CB384608CBB7F
:100120008CB382608CBBE199FECF992319F08FB715
:1001300080688FBF80E00895E199FECF9FBB8EBBA2
:100140000FB607FE05C08FB78F778FBF91E001C054
:1001500090E08CB381608CBB992319F08FB78068D5
:100160008FBF8DB3FB01808380E008951F93CF93F1
:10017000DF93EC01172F0E947F00811109C0612FCE
:10018000CE0101960E947F00882319F08FEF01C0F5
:100190008FEFDF91CF911F9108950F931F93CF930E
:1001A000DF938C01EB010E949C0081110BC0BE010A
:1001B0006F5F7F4FC80101960E949C00882319F051
:1001C0008FEF01C08FEFDF91CF911F910F910895B5
:1001D00040E00E94EF0008950E94FA0108958234E1
:1001E00031F118F4813439F008958334E1F1843425
:1001F00009F454C0089541110CC02AB381E090E085
:1002000002C0880F991F6A95E2F7809582238ABB06
:100210000895413009F05CC02AB381E090E002C04B
:10022000880F991F6A95E2F7822B8ABB08954111C6
:100230000CC027B381E090E002C0880F991F6A9537
:10024000E2F78095822387BB0895413009F040C0D2
:1002500027B381E090E002C0880F991F6A95E2F70A
:10026000822B87BB089541110CC024B381E090E03C
:1002700002C0880F991F6A95E2F78095822384BB9C
:100280000895413029F524B381E090E002C0880F41
:10029000991F6A95E2F7822B84BB089541110CC027
:1002A00021B381E090E002C0880F991F6A95E2F7C0
:1002B0008095822381BB0895413051F421B381E0C0
:1002C00090E002C0880F991F6A95E2F7822B81BBEC
:1002D0000895823469F118F4813441F0089583342B
:1002E00009F448C0843409F465C008958AB321E054
:1002F00030E0062E02C0220F331F0A94E2F790E08E
:100300008223932302C0959587956A95E2F7892BFE
:1003100009F46FC0411105C08BB3209528232BBB76
:100320000895413009F065C08BB3282B2BBB08958D
:1003300087B321E030E0062E02C0220F331F0A945B
:10034000E2F790E08223932302C0959587956A9502
:10035000E2F7892B09F44DC0411105C088B32095FF
:10036000282328BB0895413009F043C088B3282BC7
:1003700028BB089584B321E030E0062E02C0220F8E
:10038000331F0A94E2F790E08223932302C09595ED
:1003900087956A95E2F7892B61F1411105C085B314
:1003A0002095282325BB0895413019F585B3282BC6
:1003B00025BB089584B321E030E0062E02C0220F51
:1003C000331F0A94E2F790E08223932302C09595AD
:1003D00087956A95E2F7892B61F0411105C082B3D8
:1003E0002095282322BB0895413019F482B3282B8D
:1003F00022BB08958234E9F018F4813431F055C0FD
:10040000833459F18434E9F150C049B381E090E07C
:100410009C01062E02C0220F331F0A94E2F7842F9C
:1004200090E08223932302C0959587956A95E2F721
:10043000089546B381E090E09C01062E02C0220F91
:10044000331F0A94E2F7842F90E08223932302C0A3
:10045000959587956A95E2F7089543B381E090E01A
:100460009C01062E02C0220F331F0A94E2F7842F4C
:1004700090E08223932302C0959587956A95E2F7D1
:10048000089540B381E090E09C01062E02C0220F47
:10049000331F0A94E2F7842F90E08223932302C053
:1004A000959587956A95E2F708958FEF089541E055
:1004B0000E94EF00089541E00E946901089540E024
:1004C0000E94690108950E94FA0108950E9449005E
:1004D00062E081E40E94EC00813009F08BC0109250
:1004E000600062E082E40E945F0281E00E946B0093
:1004F00010926500109264001092660010926200E3
:100500004DC01092630060E081E40E94EC00811114
:1005100006C061E081E40E94EC00882341F18091F3
:100520006600803108F581E00E946B0080916400D4
:1005300090916500880F991F9093650080936400E7
:10054000809166008F5F8093660060E081E40E9486
:10055000EC00811109C08091640090916500816078
:10056000909365008093640081E0809363008091A4
:100570006300811106C0809162008F5F80936200EA
:1005800002C01092620080E00E946B0080916200C5
:10059000843059F080916600803139F062E081E466
:1005A0000E94EC00813009F4ACCF80916600882372
:1005B00009F48ECF893038F4609164008FEF90E0B9
:1005C0000E947F0008C060916400709165008FEF09
:1005D00090E00E94B600609166008EEF90E00E946D
:1005E0007F00811102C01092660062E082E40E94E6
:1005F0005B026ECF8091600081116ACF66E670E089
:100600008EEF90E00E949C00811162CF6AE670E05C
:100610008FEF90E00E94CD0081115ACF10926900B7
:10062000109268001092670057C060E081E40E9459
:10063000EC00813031F061E081E40E94EC00813017
:10064000A1F781E00E946B008091680090916900A1
:10065000880F991F909369008093680060E081E49F
:100660000E94EC00813091F480916A0090916B00BF
:100670000090670002C0969587950A94E2F780FF84
:1006800026C060E082E40E945B022DC061E081E44C
:100690000E94EC008130D9F480916A0090916B0047
:1006A0000090670002C0969587950A94E2F780FD56
:1006B00005C060E082E40E945B0215C08091680082
:1006C00090916900816090936900809368008091A7
:1006D00067008F5F8093670090916700809166004C
:1006E000981708F4A2CF60E082E40E9463028111AF
:1006F000EFCE61E082E40E945B02EACEF894FFCF85
:020700000100F6
:040000050080006017
:00000001FF
